{
	"data": {
		"bytecode": {
			"linkReferences": {},
			"object": "6080604052600a60025567016345785d8a00006003556000600460006101000a81548160ff02191690831515021790555034801561003c57600080fd5b50336000806101000a81548173ffffffffffffffffffffffffffffffffffffffff021916908373ffffffffffffffffffffffffffffffffffffffff1602179055506110ec8061008c6000396000f3fe6080604052600436106100865760003560e01c806355c9e9261161005957806355c9e926146101335780635c975abb1461015e5780638da5cb5b14610189578063bedb86fb146101b4578063e97dcb62146101dd57610086565b80631209b1f61461008b57806315981650146100b6578063288dee3b146100df5780634c2412a214610108575b600080fd5b34801561009757600080fd5b506100a06101e7565b6040516100ad9190610bbc565b60405180910390f35b3480156100c257600080fd5b506100dd60048036038101906100d891906108a1565b6101ed565b005b3480156100eb57600080fd5b50610106600480360381019061010191906108a1565b610308565b005b34801561011457600080fd5b5061011d6103fc565b60405161012a9190610bbc565b60405180910390f35b34801561013f57600080fd5b50610148610402565b6040516101559190610bbc565b60405180910390f35b34801561016a57600080fd5b5061017361040f565b6040516101809190610b01565b60405180910390f35b34801561019557600080fd5b5061019e610422565b6040516101ab9190610abd565b60405180910390f35b3480156101c057600080fd5b506101db60048036038101906101d69190610874565b61044b565b005b6101e56104f6565b005b60035481565b60008054906101000a900473ffffffffffffffffffffffffffffffffffffffff1673ffffffffffffffffffffffffffffffffffffffff163373ffffffffffffffffffffffffffffffffffffffff161461027b576040517f08c379a000000000000000000000000000000000000000000000000000000000815260040161027290610b5c565b60405180910390fd5b6000600180549050146102c3576040517f08c379a00000000000000000000000000000000000000000000000000000000081526004016102ba90610b7c565b60405180910390fd5b7f82a40b2eb2e166a9a513e909894042d026f115051ab5c019f766ba8b33c28f3f600354826040516102f6929190610bd7565b60405180910390a18060038190555050565b60008054906101000a900473ffffffffffffffffffffffffffffffffffffffff1673ffffffffffffffffffffffffffffffffffffffff163373ffffffffffffffffffffffffffffffffffffffff1614610396576040517f08c379a000000000000000000000000000000000000000000000000000000000815260040161038d90610b5c565b60405180910390fd5b600181116103d9576040517f08c379a00000000000000000000000000000000000000000000000000000000081526004016103d090610b1c565b60405180910390fd5b806002819055506002546103eb610402565b106103f9576103f8610649565b5b50565b60025481565b6000600180549050905090565b600460009054906101000a900460ff1681565b60008060009054906101000a900473ffffffffffffffffffffffffffffffffffffffff16905090565b60008054906101000a900473ffffffffffffffffffffffffffffffffffffffff1673ffffffffffffffffffffffffffffffffffffffff163373ffffffffffffffffffffffffffffffffffffffff16146104d9576040517f08c379a00000000000000000000000000000000000000000000000000000000081526004016104d090610b5c565b60405180910390fd5b80600460006101000a81548160ff02191690831515021790555050565b600460009054906101000a900460ff16158061051757506000600180549050115b610556576040517f08c379a000000000000000000000000000000000000000000000000000000000815260040161054d90610b3c565b60405180910390fd5b6000600354346105669190610c9f565b9050600081116105ab576040517f08c379a00000000000000000000000000000000000000000000000000000000081526004016105a290610b9c565b60405180910390fd5b60005b8181101561062c576001339080600181540180825580915050600190039060005260206000200160009091909190916101000a81548173ffffffffffffffffffffffffffffffffffffffff021916908373ffffffffffffffffffffffffffffffffffffffff160217905550808061062490610de2565b9150506105ae565b50600254610638610402565b1061064657610645610649565b5b50565b600044426001610657610422565b60405160200161066a9493929190610a73565b6040516020818303038152906040528051906020012060001c905060006001600a610693610402565b61069d9190610cd0565b6106a79190610c49565b826106b29190610e59565b90506000600a826106c39190610c9f565b905060016106cf610422565b9080600181540180825580915050600190039060005260206000200160009091909190916101000a81548173ffffffffffffffffffffffffffffffffffffffff021916908373ffffffffffffffffffffffffffffffffffffffff16021790555060006001828154811061074557610744610ee8565b5b9060005260206000200160009054906101000a900473ffffffffffffffffffffffffffffffffffffffff16905060004790508173ffffffffffffffffffffffffffffffffffffffff166108fc829081150290604051600060405180830381858888f193505050501580156107bd573d6000803e3d6000fd5b507f9c2270628a9b29d30ae96b6c4c14ed646ee134febdce38a5b77f2bde9cea2e2082826040516107ef929190610ad8565b60405180910390a160016000610805919061080c565b5050505050565b508054600082559060005260206000209081019061082a919061082d565b50565b5b8082111561084657600081600090555060010161082e565b5090565b60008135905061085981611088565b92915050565b60008135905061086e8161109f565b92915050565b60006020828403121561088a57610889610f2a565b5b60006108988482850161084a565b91505092915050565b6000602082840312156108b7576108b6610f2a565b5b60006108c58482850161085f565b91505092915050565b60006108da8383610904565b60208301905092915050565b6108ef81610d92565b82525050565b6108fe81610d4a565b82525050565b61090d81610d4a565b82525050565b61092461091f82610d4a565b610e2b565b82525050565b600061093582610c15565b61093f8185610c2d565b935061094a83610c00565b8060005b838110156109825761095f82610f17565b61096988826108ce565b975061097483610c20565b92505060018101905061094e565b5085935050505092915050565b61099881610d5c565b82525050565b60006109ab601e83610c38565b91506109b682610f49565b602082019050919050565b60006109ce603283610c38565b91506109d982610f72565b604082019050919050565b60006109f1601483610c38565b91506109fc82610fc1565b602082019050919050565b6000610a14602e83610c38565b9150610a1f82610fea565b604082019050919050565b6000610a37602783610c38565b9150610a4282611039565b604082019050919050565b610a5681610d88565b82525050565b610a6d610a6882610d88565b610e4f565b82525050565b6000610a7f8287610a5c565b602082019150610a8f8286610a5c565b602082019150610a9f828561092a565b9150610aab8284610913565b60148201915081905095945050505050565b6000602082019050610ad260008301846108f5565b92915050565b6000604082019050610aed60008301856108e6565b610afa6020830184610a4d565b9392505050565b6000602082019050610b16600083018461098f565b92915050565b60006020820190508181036000830152610b358161099e565b9050919050565b60006020820190508181036000830152610b55816109c1565b9050919050565b60006020820190508181036000830152610b75816109e4565b9050919050565b60006020820190508181036000830152610b9581610a07565b9050919050565b60006020820190508181036000830152610bb581610a2a565b9050919050565b6000602082019050610bd16000830184610a4d565b92915050565b6000604082019050610bec6000830185610a4d565b610bf96020830184610a4d565b9392505050565b60008190508160005260206000209050919050565b600081549050919050565b6000600182019050919050565b600081905092915050565b600082825260208201905092915050565b6000610c5482610d88565b9150610c5f83610d88565b9250827fffffffffffffffffffffffffffffffffffffffffffffffffffffffffffffffff03821115610c9457610c93610e8a565b5b828201905092915050565b6000610caa82610d88565b9150610cb583610d88565b925082610cc557610cc4610eb9565b5b828204905092915050565b6000610cdb82610d88565b9150610ce683610d88565b9250817fffffffffffffffffffffffffffffffffffffffffffffffffffffffffffffffff0483118215151615610d1f57610d1e610e8a565b5b828202905092915050565b600073ffffffffffffffffffffffffffffffffffffffff82169050919050565b6000610d5582610d68565b9050919050565b60008115159050919050565b600073ffffffffffffffffffffffffffffffffffffffff82169050919050565b6000819050919050565b6000610d9d82610da4565b9050919050565b6000610daf82610db6565b9050919050565b6000610dc182610d68565b9050919050565b6000610ddb610dd683610f3c565b610d2a565b9050919050565b6000610ded82610d88565b91507fffffffffffffffffffffffffffffffffffffffffffffffffffffffffffffffff821415610e2057610e1f610e8a565b5b600182019050919050565b6000610e3682610e3d565b9050919050565b6000610e4882610f2f565b9050919050565b6000819050919050565b6000610e6482610d88565b9150610e6f83610d88565b925082610e7f57610e7e610eb9565b5b828206905092915050565b7f4e487b7100000000000000000000000000000000000000000000000000000000600052601160045260246000fd5b7f4e487b7100000000000000000000000000000000000000000000000000000000600052601260045260246000fd5b7f4e487b7100000000000000000000000000000000000000000000000000000000600052603260045260246000fd5b6000610f238254610dc8565b9050919050565b600080fd5b60008160601b9050919050565b60008160001c9050919050565b7f4d617820506c6179657273206d757374206265206174206c6561737420320000600082015250565b7f536f7272792c2063616e2774206a6f696e20746865206e6577206c6f7474657260008201527f793a20636f6e7472616374207061757365640000000000000000000000000000602082015250565b7f596f75277265206e6f7420746865204f776e6572000000000000000000000000600082015250565b7f796f752063616e2774206368616e6765207469636b657420707269636520647560008201527f72696e672061206c6f7474657279000000000000000000000000000000000000602082015250565b7f536f7272792c206e6f7420656e6f75676820657468657220746f20627579206160008201527f207469636b657400000000000000000000000000000000000000000000000000602082015250565b61109181610d5c565b811461109c57600080fd5b50565b6110a881610d88565b81146110b357600080fd5b5056fea2646970667358221220850f4e46165ec93653704676bb07d8f3cfa60b330c1bc784b5d534d2baf2852464736f6c63430008070033",
			"opcodes": "PUSH1 0x80 PUSH1 0x40 MSTORE PUSH1 0xA PUSH1 0x2 SSTORE PUSH8 0x16345785D8A0000 PUSH1 0x3 SSTORE PUSH1 0x0 PUSH1 0x4 PUSH1 0x0 PUSH2 0x100 EXP DUP2 SLOAD DUP2 PUSH1 0xFF MUL NOT AND SWAP1 DUP4 ISZERO ISZERO MUL OR SWAP1 SSTORE POP CALLVALUE DUP1 ISZERO PUSH2 0x3C JUMPI PUSH1 0x0 DUP1 REVERT JUMPDEST POP CALLER PUSH1 0x0 DUP1 PUSH2 0x100 EXP DUP2 SLOAD DUP2 PUSH20 0xFFFFFFFFFFFFFFFFFFFFFFFFFFFFFFFFFFFFFFFF MUL NOT AND SWAP1 DUP4 PUSH20 0xFFFFFFFFFFFFFFFFFFFFFFFFFFFFFFFFFFFFFFFF AND MUL OR SWAP1 SSTORE POP PUSH2 0x10EC DUP1 PUSH2 0x8C PUSH1 0x0 CODECOPY PUSH1 0x0 RETURN INVALID PUSH1 0x80 PUSH1 0x40 MSTORE PUSH1 0x4 CALLDATASIZE LT PUSH2 0x86 JUMPI PUSH1 0x0 CALLDATALOAD PUSH1 0xE0 SHR DUP1 PUSH4 0x55C9E926 GT PUSH2 0x59 JUMPI DUP1 PUSH4 0x55C9E926 EQ PUSH2 0x133 JUMPI DUP1 PUSH4 0x5C975ABB EQ PUSH2 0x15E JUMPI DUP1 PUSH4 0x8DA5CB5B EQ PUSH2 0x189 JUMPI DUP1 PUSH4 0xBEDB86FB EQ PUSH2 0x1B4 JUMPI DUP1 PUSH4 0xE97DCB62 EQ PUSH2 0x1DD JUMPI PUSH2 0x86 JUMP JUMPDEST DUP1 PUSH4 0x1209B1F6 EQ PUSH2 0x8B JUMPI DUP1 PUSH4 0x15981650 EQ PUSH2 0xB6 JUMPI DUP1 PUSH4 0x288DEE3B EQ PUSH2 0xDF JUMPI DUP1 PUSH4 0x4C2412A2 EQ PUSH2 0x108 JUMPI JUMPDEST PUSH1 0x0 DUP1 REVERT JUMPDEST CALLVALUE DUP1 ISZERO PUSH2 0x97 JUMPI PUSH1 0x0 DUP1 REVERT JUMPDEST POP PUSH2 0xA0 PUSH2 0x1E7 JUMP JUMPDEST PUSH1 0x40 MLOAD PUSH2 0xAD SWAP2 SWAP1 PUSH2 0xBBC JUMP JUMPDEST PUSH1 0x40 MLOAD DUP1 SWAP2 SUB SWAP1 RETURN JUMPDEST CALLVALUE DUP1 ISZERO PUSH2 0xC2 JUMPI PUSH1 0x0 DUP1 REVERT JUMPDEST POP PUSH2 0xDD PUSH1 0x4 DUP1 CALLDATASIZE SUB DUP2 ADD SWAP1 PUSH2 0xD8 SWAP2 SWAP1 PUSH2 0x8A1 JUMP JUMPDEST PUSH2 0x1ED JUMP JUMPDEST STOP JUMPDEST CALLVALUE DUP1 ISZERO PUSH2 0xEB JUMPI PUSH1 0x0 DUP1 REVERT JUMPDEST POP PUSH2 0x106 PUSH1 0x4 DUP1 CALLDATASIZE SUB DUP2 ADD SWAP1 PUSH2 0x101 SWAP2 SWAP1 PUSH2 0x8A1 JUMP JUMPDEST PUSH2 0x308 JUMP JUMPDEST STOP JUMPDEST CALLVALUE DUP1 ISZERO PUSH2 0x114 JUMPI PUSH1 0x0 DUP1 REVERT JUMPDEST POP PUSH2 0x11D PUSH2 0x3FC JUMP JUMPDEST PUSH1 0x40 MLOAD PUSH2 0x12A SWAP2 SWAP1 PUSH2 0xBBC JUMP JUMPDEST PUSH1 0x40 MLOAD DUP1 SWAP2 SUB SWAP1 RETURN JUMPDEST CALLVALUE DUP1 ISZERO PUSH2 0x13F JUMPI PUSH1 0x0 DUP1 REVERT JUMPDEST POP PUSH2 0x148 PUSH2 0x402 JUMP JUMPDEST PUSH1 0x40 MLOAD PUSH2 0x155 SWAP2 SWAP1 PUSH2 0xBBC JUMP JUMPDEST PUSH1 0x40 MLOAD DUP1 SWAP2 SUB SWAP1 RETURN JUMPDEST CALLVALUE DUP1 ISZERO PUSH2 0x16A JUMPI PUSH1 0x0 DUP1 REVERT JUMPDEST POP PUSH2 0x173 PUSH2 0x40F JUMP JUMPDEST PUSH1 0x40 MLOAD PUSH2 0x180 SWAP2 SWAP1 PUSH2 0xB01 JUMP JUMPDEST PUSH1 0x40 MLOAD DUP1 SWAP2 SUB SWAP1 RETURN JUMPDEST CALLVALUE DUP1 ISZERO PUSH2 0x195 JUMPI PUSH1 0x0 DUP1 REVERT JUMPDEST POP PUSH2 0x19E PUSH2 0x422 JUMP JUMPDEST PUSH1 0x40 MLOAD PUSH2 0x1AB SWAP2 SWAP1 PUSH2 0xABD JUMP JUMPDEST PUSH1 0x40 MLOAD DUP1 SWAP2 SUB SWAP1 RETURN JUMPDEST CALLVALUE DUP1 ISZERO PUSH2 0x1C0 JUMPI PUSH1 0x0 DUP1 REVERT JUMPDEST POP PUSH2 0x1DB PUSH1 0x4 DUP1 CALLDATASIZE SUB DUP2 ADD SWAP1 PUSH2 0x1D6 SWAP2 SWAP1 PUSH2 0x874 JUMP JUMPDEST PUSH2 0x44B JUMP JUMPDEST STOP JUMPDEST PUSH2 0x1E5 PUSH2 0x4F6 JUMP JUMPDEST STOP JUMPDEST PUSH1 0x3 SLOAD DUP2 JUMP JUMPDEST PUSH1 0x0 DUP1 SLOAD SWAP1 PUSH2 0x100 EXP SWAP1 DIV PUSH20 0xFFFFFFFFFFFFFFFFFFFFFFFFFFFFFFFFFFFFFFFF AND PUSH20 0xFFFFFFFFFFFFFFFFFFFFFFFFFFFFFFFFFFFFFFFF AND CALLER PUSH20 0xFFFFFFFFFFFFFFFFFFFFFFFFFFFFFFFFFFFFFFFF AND EQ PUSH2 0x27B JUMPI PUSH1 0x40 MLOAD PUSH32 0x8C379A000000000000000000000000000000000000000000000000000000000 DUP2 MSTORE PUSH1 0x4 ADD PUSH2 0x272 SWAP1 PUSH2 0xB5C JUMP JUMPDEST PUSH1 0x40 MLOAD DUP1 SWAP2 SUB SWAP1 REVERT JUMPDEST PUSH1 0x0 PUSH1 0x1 DUP1 SLOAD SWAP1 POP EQ PUSH2 0x2C3 JUMPI PUSH1 0x40 MLOAD PUSH32 0x8C379A000000000000000000000000000000000000000000000000000000000 DUP2 MSTORE PUSH1 0x4 ADD PUSH2 0x2BA SWAP1 PUSH2 0xB7C JUMP JUMPDEST PUSH1 0x40 MLOAD DUP1 SWAP2 SUB SWAP1 REVERT JUMPDEST PUSH32 0x82A40B2EB2E166A9A513E909894042D026F115051AB5C019F766BA8B33C28F3F PUSH1 0x3 SLOAD DUP3 PUSH1 0x40 MLOAD PUSH2 0x2F6 SWAP3 SWAP2 SWAP1 PUSH2 0xBD7 JUMP JUMPDEST PUSH1 0x40 MLOAD DUP1 SWAP2 SUB SWAP1 LOG1 DUP1 PUSH1 0x3 DUP2 SWAP1 SSTORE POP POP JUMP JUMPDEST PUSH1 0x0 DUP1 SLOAD SWAP1 PUSH2 0x100 EXP SWAP1 DIV PUSH20 0xFFFFFFFFFFFFFFFFFFFFFFFFFFFFFFFFFFFFFFFF AND PUSH20 0xFFFFFFFFFFFFFFFFFFFFFFFFFFFFFFFFFFFFFFFF AND CALLER PUSH20 0xFFFFFFFFFFFFFFFFFFFFFFFFFFFFFFFFFFFFFFFF AND EQ PUSH2 0x396 JUMPI PUSH1 0x40 MLOAD PUSH32 0x8C379A000000000000000000000000000000000000000000000000000000000 DUP2 MSTORE PUSH1 0x4 ADD PUSH2 0x38D SWAP1 PUSH2 0xB5C JUMP JUMPDEST PUSH1 0x40 MLOAD DUP1 SWAP2 SUB SWAP1 REVERT JUMPDEST PUSH1 0x1 DUP2 GT PUSH2 0x3D9 JUMPI PUSH1 0x40 MLOAD PUSH32 0x8C379A000000000000000000000000000000000000000000000000000000000 DUP2 MSTORE PUSH1 0x4 ADD PUSH2 0x3D0 SWAP1 PUSH2 0xB1C JUMP JUMPDEST PUSH1 0x40 MLOAD DUP1 SWAP2 SUB SWAP1 REVERT JUMPDEST DUP1 PUSH1 0x2 DUP2 SWAP1 SSTORE POP PUSH1 0x2 SLOAD PUSH2 0x3EB PUSH2 0x402 JUMP JUMPDEST LT PUSH2 0x3F9 JUMPI PUSH2 0x3F8 PUSH2 0x649 JUMP JUMPDEST JUMPDEST POP JUMP JUMPDEST PUSH1 0x2 SLOAD DUP2 JUMP JUMPDEST PUSH1 0x0 PUSH1 0x1 DUP1 SLOAD SWAP1 POP SWAP1 POP SWAP1 JUMP JUMPDEST PUSH1 0x4 PUSH1 0x0 SWAP1 SLOAD SWAP1 PUSH2 0x100 EXP SWAP1 DIV PUSH1 0xFF AND DUP2 JUMP JUMPDEST PUSH1 0x0 DUP1 PUSH1 0x0 SWAP1 SLOAD SWAP1 PUSH2 0x100 EXP SWAP1 DIV PUSH20 0xFFFFFFFFFFFFFFFFFFFFFFFFFFFFFFFFFFFFFFFF AND SWAP1 POP SWAP1 JUMP JUMPDEST PUSH1 0x0 DUP1 SLOAD SWAP1 PUSH2 0x100 EXP SWAP1 DIV PUSH20 0xFFFFFFFFFFFFFFFFFFFFFFFFFFFFFFFFFFFFFFFF AND PUSH20 0xFFFFFFFFFFFFFFFFFFFFFFFFFFFFFFFFFFFFFFFF AND CALLER PUSH20 0xFFFFFFFFFFFFFFFFFFFFFFFFFFFFFFFFFFFFFFFF AND EQ PUSH2 0x4D9 JUMPI PUSH1 0x40 MLOAD PUSH32 0x8C379A000000000000000000000000000000000000000000000000000000000 DUP2 MSTORE PUSH1 0x4 ADD PUSH2 0x4D0 SWAP1 PUSH2 0xB5C JUMP JUMPDEST PUSH1 0x40 MLOAD DUP1 SWAP2 SUB SWAP1 REVERT JUMPDEST DUP1 PUSH1 0x4 PUSH1 0x0 PUSH2 0x100 EXP DUP2 SLOAD DUP2 PUSH1 0xFF MUL NOT AND SWAP1 DUP4 ISZERO ISZERO MUL OR SWAP1 SSTORE POP POP JUMP JUMPDEST PUSH1 0x4 PUSH1 0x0 SWAP1 SLOAD SWAP1 PUSH2 0x100 EXP SWAP1 DIV PUSH1 0xFF AND ISZERO DUP1 PUSH2 0x517 JUMPI POP PUSH1 0x0 PUSH1 0x1 DUP1 SLOAD SWAP1 POP GT JUMPDEST PUSH2 0x556 JUMPI PUSH1 0x40 MLOAD PUSH32 0x8C379A000000000000000000000000000000000000000000000000000000000 DUP2 MSTORE PUSH1 0x4 ADD PUSH2 0x54D SWAP1 PUSH2 0xB3C JUMP JUMPDEST PUSH1 0x40 MLOAD DUP1 SWAP2 SUB SWAP1 REVERT JUMPDEST PUSH1 0x0 PUSH1 0x3 SLOAD CALLVALUE PUSH2 0x566 SWAP2 SWAP1 PUSH2 0xC9F JUMP JUMPDEST SWAP1 POP PUSH1 0x0 DUP2 GT PUSH2 0x5AB JUMPI PUSH1 0x40 MLOAD PUSH32 0x8C379A000000000000000000000000000000000000000000000000000000000 DUP2 MSTORE PUSH1 0x4 ADD PUSH2 0x5A2 SWAP1 PUSH2 0xB9C JUMP JUMPDEST PUSH1 0x40 MLOAD DUP1 SWAP2 SUB SWAP1 REVERT JUMPDEST PUSH1 0x0 JUMPDEST DUP2 DUP2 LT ISZERO PUSH2 0x62C JUMPI PUSH1 0x1 CALLER SWAP1 DUP1 PUSH1 0x1 DUP2 SLOAD ADD DUP1 DUP3 SSTORE DUP1 SWAP2 POP POP PUSH1 0x1 SWAP1 SUB SWAP1 PUSH1 0x0 MSTORE PUSH1 0x20 PUSH1 0x0 KECCAK256 ADD PUSH1 0x0 SWAP1 SWAP2 SWAP1 SWAP2 SWAP1 SWAP2 PUSH2 0x100 EXP DUP2 SLOAD DUP2 PUSH20 0xFFFFFFFFFFFFFFFFFFFFFFFFFFFFFFFFFFFFFFFF MUL NOT AND SWAP1 DUP4 PUSH20 0xFFFFFFFFFFFFFFFFFFFFFFFFFFFFFFFFFFFFFFFF AND MUL OR SWAP1 SSTORE POP DUP1 DUP1 PUSH2 0x624 SWAP1 PUSH2 0xDE2 JUMP JUMPDEST SWAP2 POP POP PUSH2 0x5AE JUMP JUMPDEST POP PUSH1 0x2 SLOAD PUSH2 0x638 PUSH2 0x402 JUMP JUMPDEST LT PUSH2 0x646 JUMPI PUSH2 0x645 PUSH2 0x649 JUMP JUMPDEST JUMPDEST POP JUMP JUMPDEST PUSH1 0x0 DIFFICULTY TIMESTAMP PUSH1 0x1 PUSH2 0x657 PUSH2 0x422 JUMP JUMPDEST PUSH1 0x40 MLOAD PUSH1 0x20 ADD PUSH2 0x66A SWAP5 SWAP4 SWAP3 SWAP2 SWAP1 PUSH2 0xA73 JUMP JUMPDEST PUSH1 0x40 MLOAD PUSH1 0x20 DUP2 DUP4 SUB SUB DUP2 MSTORE SWAP1 PUSH1 0x40 MSTORE DUP1 MLOAD SWAP1 PUSH1 0x20 ADD KECCAK256 PUSH1 0x0 SHR SWAP1 POP PUSH1 0x0 PUSH1 0x1 PUSH1 0xA PUSH2 0x693 PUSH2 0x402 JUMP JUMPDEST PUSH2 0x69D SWAP2 SWAP1 PUSH2 0xCD0 JUMP JUMPDEST PUSH2 0x6A7 SWAP2 SWAP1 PUSH2 0xC49 JUMP JUMPDEST DUP3 PUSH2 0x6B2 SWAP2 SWAP1 PUSH2 0xE59 JUMP JUMPDEST SWAP1 POP PUSH1 0x0 PUSH1 0xA DUP3 PUSH2 0x6C3 SWAP2 SWAP1 PUSH2 0xC9F JUMP JUMPDEST SWAP1 POP PUSH1 0x1 PUSH2 0x6CF PUSH2 0x422 JUMP JUMPDEST SWAP1 DUP1 PUSH1 0x1 DUP2 SLOAD ADD DUP1 DUP3 SSTORE DUP1 SWAP2 POP POP PUSH1 0x1 SWAP1 SUB SWAP1 PUSH1 0x0 MSTORE PUSH1 0x20 PUSH1 0x0 KECCAK256 ADD PUSH1 0x0 SWAP1 SWAP2 SWAP1 SWAP2 SWAP1 SWAP2 PUSH2 0x100 EXP DUP2 SLOAD DUP2 PUSH20 0xFFFFFFFFFFFFFFFFFFFFFFFFFFFFFFFFFFFFFFFF MUL NOT AND SWAP1 DUP4 PUSH20 0xFFFFFFFFFFFFFFFFFFFFFFFFFFFFFFFFFFFFFFFF AND MUL OR SWAP1 SSTORE POP PUSH1 0x0 PUSH1 0x1 DUP3 DUP2 SLOAD DUP2 LT PUSH2 0x745 JUMPI PUSH2 0x744 PUSH2 0xEE8 JUMP JUMPDEST JUMPDEST SWAP1 PUSH1 0x0 MSTORE PUSH1 0x20 PUSH1 0x0 KECCAK256 ADD PUSH1 0x0 SWAP1 SLOAD SWAP1 PUSH2 0x100 EXP SWAP1 DIV PUSH20 0xFFFFFFFFFFFFFFFFFFFFFFFFFFFFFFFFFFFFFFFF AND SWAP1 POP PUSH1 0x0 SELFBALANCE SWAP1 POP DUP2 PUSH20 0xFFFFFFFFFFFFFFFFFFFFFFFFFFFFFFFFFFFFFFFF AND PUSH2 0x8FC DUP3 SWAP1 DUP2 ISZERO MUL SWAP1 PUSH1 0x40 MLOAD PUSH1 0x0 PUSH1 0x40 MLOAD DUP1 DUP4 SUB DUP2 DUP6 DUP9 DUP9 CALL SWAP4 POP POP POP POP ISZERO DUP1 ISZERO PUSH2 0x7BD JUMPI RETURNDATASIZE PUSH1 0x0 DUP1 RETURNDATACOPY RETURNDATASIZE PUSH1 0x0 REVERT JUMPDEST POP PUSH32 0x9C2270628A9B29D30AE96B6C4C14ED646EE134FEBDCE38A5B77F2BDE9CEA2E20 DUP3 DUP3 PUSH1 0x40 MLOAD PUSH2 0x7EF SWAP3 SWAP2 SWAP1 PUSH2 0xAD8 JUMP JUMPDEST PUSH1 0x40 MLOAD DUP1 SWAP2 SUB SWAP1 LOG1 PUSH1 0x1 PUSH1 0x0 PUSH2 0x805 SWAP2 SWAP1 PUSH2 0x80C JUMP JUMPDEST POP POP POP POP POP JUMP JUMPDEST POP DUP1 SLOAD PUSH1 0x0 DUP3 SSTORE SWAP1 PUSH1 0x0 MSTORE PUSH1 0x20 PUSH1 0x0 KECCAK256 SWAP1 DUP2 ADD SWAP1 PUSH2 0x82A SWAP2 SWAP1 PUSH2 0x82D JUMP JUMPDEST POP JUMP JUMPDEST JUMPDEST DUP1 DUP3 GT ISZERO PUSH2 0x846 JUMPI PUSH1 0x0 DUP2 PUSH1 0x0 SWAP1 SSTORE POP PUSH1 0x1 ADD PUSH2 0x82E JUMP JUMPDEST POP SWAP1 JUMP JUMPDEST PUSH1 0x0 DUP2 CALLDATALOAD SWAP1 POP PUSH2 0x859 DUP2 PUSH2 0x1088 JUMP JUMPDEST SWAP3 SWAP2 POP POP JUMP JUMPDEST PUSH1 0x0 DUP2 CALLDATALOAD SWAP1 POP PUSH2 0x86E DUP2 PUSH2 0x109F JUMP JUMPDEST SWAP3 SWAP2 POP POP JUMP JUMPDEST PUSH1 0x0 PUSH1 0x20 DUP3 DUP5 SUB SLT ISZERO PUSH2 0x88A JUMPI PUSH2 0x889 PUSH2 0xF2A JUMP JUMPDEST JUMPDEST PUSH1 0x0 PUSH2 0x898 DUP5 DUP3 DUP6 ADD PUSH2 0x84A JUMP JUMPDEST SWAP2 POP POP SWAP3 SWAP2 POP POP JUMP JUMPDEST PUSH1 0x0 PUSH1 0x20 DUP3 DUP5 SUB SLT ISZERO PUSH2 0x8B7 JUMPI PUSH2 0x8B6 PUSH2 0xF2A JUMP JUMPDEST JUMPDEST PUSH1 0x0 PUSH2 0x8C5 DUP5 DUP3 DUP6 ADD PUSH2 0x85F JUMP JUMPDEST SWAP2 POP POP SWAP3 SWAP2 POP POP JUMP JUMPDEST PUSH1 0x0 PUSH2 0x8DA DUP4 DUP4 PUSH2 0x904 JUMP JUMPDEST PUSH1 0x20 DUP4 ADD SWAP1 POP SWAP3 SWAP2 POP POP JUMP JUMPDEST PUSH2 0x8EF DUP2 PUSH2 0xD92 JUMP JUMPDEST DUP3 MSTORE POP POP JUMP JUMPDEST PUSH2 0x8FE DUP2 PUSH2 0xD4A JUMP JUMPDEST DUP3 MSTORE POP POP JUMP JUMPDEST PUSH2 0x90D DUP2 PUSH2 0xD4A JUMP JUMPDEST DUP3 MSTORE POP POP JUMP JUMPDEST PUSH2 0x924 PUSH2 0x91F DUP3 PUSH2 0xD4A JUMP JUMPDEST PUSH2 0xE2B JUMP JUMPDEST DUP3 MSTORE POP POP JUMP JUMPDEST PUSH1 0x0 PUSH2 0x935 DUP3 PUSH2 0xC15 JUMP JUMPDEST PUSH2 0x93F DUP2 DUP6 PUSH2 0xC2D JUMP JUMPDEST SWAP4 POP PUSH2 0x94A DUP4 PUSH2 0xC00 JUMP JUMPDEST DUP1 PUSH1 0x0 JUMPDEST DUP4 DUP2 LT ISZERO PUSH2 0x982 JUMPI PUSH2 0x95F DUP3 PUSH2 0xF17 JUMP JUMPDEST PUSH2 0x969 DUP9 DUP3 PUSH2 0x8CE JUMP JUMPDEST SWAP8 POP PUSH2 0x974 DUP4 PUSH2 0xC20 JUMP JUMPDEST SWAP3 POP POP PUSH1 0x1 DUP2 ADD SWAP1 POP PUSH2 0x94E JUMP JUMPDEST POP DUP6 SWAP4 POP POP POP POP SWAP3 SWAP2 POP POP JUMP JUMPDEST PUSH2 0x998 DUP2 PUSH2 0xD5C JUMP JUMPDEST DUP3 MSTORE POP POP JUMP JUMPDEST PUSH1 0x0 PUSH2 0x9AB PUSH1 0x1E DUP4 PUSH2 0xC38 JUMP JUMPDEST SWAP2 POP PUSH2 0x9B6 DUP3 PUSH2 0xF49 JUMP JUMPDEST PUSH1 0x20 DUP3 ADD SWAP1 POP SWAP2 SWAP1 POP JUMP JUMPDEST PUSH1 0x0 PUSH2 0x9CE PUSH1 0x32 DUP4 PUSH2 0xC38 JUMP JUMPDEST SWAP2 POP PUSH2 0x9D9 DUP3 PUSH2 0xF72 JUMP JUMPDEST PUSH1 0x40 DUP3 ADD SWAP1 POP SWAP2 SWAP1 POP JUMP JUMPDEST PUSH1 0x0 PUSH2 0x9F1 PUSH1 0x14 DUP4 PUSH2 0xC38 JUMP JUMPDEST SWAP2 POP PUSH2 0x9FC DUP3 PUSH2 0xFC1 JUMP JUMPDEST PUSH1 0x20 DUP3 ADD SWAP1 POP SWAP2 SWAP1 POP JUMP JUMPDEST PUSH1 0x0 PUSH2 0xA14 PUSH1 0x2E DUP4 PUSH2 0xC38 JUMP JUMPDEST SWAP2 POP PUSH2 0xA1F DUP3 PUSH2 0xFEA JUMP JUMPDEST PUSH1 0x40 DUP3 ADD SWAP1 POP SWAP2 SWAP1 POP JUMP JUMPDEST PUSH1 0x0 PUSH2 0xA37 PUSH1 0x27 DUP4 PUSH2 0xC38 JUMP JUMPDEST SWAP2 POP PUSH2 0xA42 DUP3 PUSH2 0x1039 JUMP JUMPDEST PUSH1 0x40 DUP3 ADD SWAP1 POP SWAP2 SWAP1 POP JUMP JUMPDEST PUSH2 0xA56 DUP2 PUSH2 0xD88 JUMP JUMPDEST DUP3 MSTORE POP POP JUMP JUMPDEST PUSH2 0xA6D PUSH2 0xA68 DUP3 PUSH2 0xD88 JUMP JUMPDEST PUSH2 0xE4F JUMP JUMPDEST DUP3 MSTORE POP POP JUMP JUMPDEST PUSH1 0x0 PUSH2 0xA7F DUP3 DUP8 PUSH2 0xA5C JUMP JUMPDEST PUSH1 0x20 DUP3 ADD SWAP2 POP PUSH2 0xA8F DUP3 DUP7 PUSH2 0xA5C JUMP JUMPDEST PUSH1 0x20 DUP3 ADD SWAP2 POP PUSH2 0xA9F DUP3 DUP6 PUSH2 0x92A JUMP JUMPDEST SWAP2 POP PUSH2 0xAAB DUP3 DUP5 PUSH2 0x913 JUMP JUMPDEST PUSH1 0x14 DUP3 ADD SWAP2 POP DUP2 SWAP1 POP SWAP6 SWAP5 POP POP POP POP POP JUMP JUMPDEST PUSH1 0x0 PUSH1 0x20 DUP3 ADD SWAP1 POP PUSH2 0xAD2 PUSH1 0x0 DUP4 ADD DUP5 PUSH2 0x8F5 JUMP JUMPDEST SWAP3 SWAP2 POP POP JUMP JUMPDEST PUSH1 0x0 PUSH1 0x40 DUP3 ADD SWAP1 POP PUSH2 0xAED PUSH1 0x0 DUP4 ADD DUP6 PUSH2 0x8E6 JUMP JUMPDEST PUSH2 0xAFA PUSH1 0x20 DUP4 ADD DUP5 PUSH2 0xA4D JUMP JUMPDEST SWAP4 SWAP3 POP POP POP JUMP JUMPDEST PUSH1 0x0 PUSH1 0x20 DUP3 ADD SWAP1 POP PUSH2 0xB16 PUSH1 0x0 DUP4 ADD DUP5 PUSH2 0x98F JUMP JUMPDEST SWAP3 SWAP2 POP POP JUMP JUMPDEST PUSH1 0x0 PUSH1 0x20 DUP3 ADD SWAP1 POP DUP2 DUP2 SUB PUSH1 0x0 DUP4 ADD MSTORE PUSH2 0xB35 DUP2 PUSH2 0x99E JUMP JUMPDEST SWAP1 POP SWAP2 SWAP1 POP JUMP JUMPDEST PUSH1 0x0 PUSH1 0x20 DUP3 ADD SWAP1 POP DUP2 DUP2 SUB PUSH1 0x0 DUP4 ADD MSTORE PUSH2 0xB55 DUP2 PUSH2 0x9C1 JUMP JUMPDEST SWAP1 POP SWAP2 SWAP1 POP JUMP JUMPDEST PUSH1 0x0 PUSH1 0x20 DUP3 ADD SWAP1 POP DUP2 DUP2 SUB PUSH1 0x0 DUP4 ADD MSTORE PUSH2 0xB75 DUP2 PUSH2 0x9E4 JUMP JUMPDEST SWAP1 POP SWAP2 SWAP1 POP JUMP JUMPDEST PUSH1 0x0 PUSH1 0x20 DUP3 ADD SWAP1 POP DUP2 DUP2 SUB PUSH1 0x0 DUP4 ADD MSTORE PUSH2 0xB95 DUP2 PUSH2 0xA07 JUMP JUMPDEST SWAP1 POP SWAP2 SWAP1 POP JUMP JUMPDEST PUSH1 0x0 PUSH1 0x20 DUP3 ADD SWAP1 POP DUP2 DUP2 SUB PUSH1 0x0 DUP4 ADD MSTORE PUSH2 0xBB5 DUP2 PUSH2 0xA2A JUMP JUMPDEST SWAP1 POP SWAP2 SWAP1 POP JUMP JUMPDEST PUSH1 0x0 PUSH1 0x20 DUP3 ADD SWAP1 POP PUSH2 0xBD1 PUSH1 0x0 DUP4 ADD DUP5 PUSH2 0xA4D JUMP JUMPDEST SWAP3 SWAP2 POP POP JUMP JUMPDEST PUSH1 0x0 PUSH1 0x40 DUP3 ADD SWAP1 POP PUSH2 0xBEC PUSH1 0x0 DUP4 ADD DUP6 PUSH2 0xA4D JUMP JUMPDEST PUSH2 0xBF9 PUSH1 0x20 DUP4 ADD DUP5 PUSH2 0xA4D JUMP JUMPDEST SWAP4 SWAP3 POP POP POP JUMP JUMPDEST PUSH1 0x0 DUP2 SWAP1 POP DUP2 PUSH1 0x0 MSTORE PUSH1 0x20 PUSH1 0x0 KECCAK256 SWAP1 POP SWAP2 SWAP1 POP JUMP JUMPDEST PUSH1 0x0 DUP2 SLOAD SWAP1 POP SWAP2 SWAP1 POP JUMP JUMPDEST PUSH1 0x0 PUSH1 0x1 DUP3 ADD SWAP1 POP SWAP2 SWAP1 POP JUMP JUMPDEST PUSH1 0x0 DUP2 SWAP1 POP SWAP3 SWAP2 POP POP JUMP JUMPDEST PUSH1 0x0 DUP3 DUP3 MSTORE PUSH1 0x20 DUP3 ADD SWAP1 POP SWAP3 SWAP2 POP POP JUMP JUMPDEST PUSH1 0x0 PUSH2 0xC54 DUP3 PUSH2 0xD88 JUMP JUMPDEST SWAP2 POP PUSH2 0xC5F DUP4 PUSH2 0xD88 JUMP JUMPDEST SWAP3 POP DUP3 PUSH32 0xFFFFFFFFFFFFFFFFFFFFFFFFFFFFFFFFFFFFFFFFFFFFFFFFFFFFFFFFFFFFFFFF SUB DUP3 GT ISZERO PUSH2 0xC94 JUMPI PUSH2 0xC93 PUSH2 0xE8A JUMP JUMPDEST JUMPDEST DUP3 DUP3 ADD SWAP1 POP SWAP3 SWAP2 POP POP JUMP JUMPDEST PUSH1 0x0 PUSH2 0xCAA DUP3 PUSH2 0xD88 JUMP JUMPDEST SWAP2 POP PUSH2 0xCB5 DUP4 PUSH2 0xD88 JUMP JUMPDEST SWAP3 POP DUP3 PUSH2 0xCC5 JUMPI PUSH2 0xCC4 PUSH2 0xEB9 JUMP JUMPDEST JUMPDEST DUP3 DUP3 DIV SWAP1 POP SWAP3 SWAP2 POP POP JUMP JUMPDEST PUSH1 0x0 PUSH2 0xCDB DUP3 PUSH2 0xD88 JUMP JUMPDEST SWAP2 POP PUSH2 0xCE6 DUP4 PUSH2 0xD88 JUMP JUMPDEST SWAP3 POP DUP2 PUSH32 0xFFFFFFFFFFFFFFFFFFFFFFFFFFFFFFFFFFFFFFFFFFFFFFFFFFFFFFFFFFFFFFFF DIV DUP4 GT DUP3 ISZERO ISZERO AND ISZERO PUSH2 0xD1F JUMPI PUSH2 0xD1E PUSH2 0xE8A JUMP JUMPDEST JUMPDEST DUP3 DUP3 MUL SWAP1 POP SWAP3 SWAP2 POP POP JUMP JUMPDEST PUSH1 0x0 PUSH20 0xFFFFFFFFFFFFFFFFFFFFFFFFFFFFFFFFFFFFFFFF DUP3 AND SWAP1 POP SWAP2 SWAP1 POP JUMP JUMPDEST PUSH1 0x0 PUSH2 0xD55 DUP3 PUSH2 0xD68 JUMP JUMPDEST SWAP1 POP SWAP2 SWAP1 POP JUMP JUMPDEST PUSH1 0x0 DUP2 ISZERO ISZERO SWAP1 POP SWAP2 SWAP1 POP JUMP JUMPDEST PUSH1 0x0 PUSH20 0xFFFFFFFFFFFFFFFFFFFFFFFFFFFFFFFFFFFFFFFF DUP3 AND SWAP1 POP SWAP2 SWAP1 POP JUMP JUMPDEST PUSH1 0x0 DUP2 SWAP1 POP SWAP2 SWAP1 POP JUMP JUMPDEST PUSH1 0x0 PUSH2 0xD9D DUP3 PUSH2 0xDA4 JUMP JUMPDEST SWAP1 POP SWAP2 SWAP1 POP JUMP JUMPDEST PUSH1 0x0 PUSH2 0xDAF DUP3 PUSH2 0xDB6 JUMP JUMPDEST SWAP1 POP SWAP2 SWAP1 POP JUMP JUMPDEST PUSH1 0x0 PUSH2 0xDC1 DUP3 PUSH2 0xD68 JUMP JUMPDEST SWAP1 POP SWAP2 SWAP1 POP JUMP JUMPDEST PUSH1 0x0 PUSH2 0xDDB PUSH2 0xDD6 DUP4 PUSH2 0xF3C JUMP JUMPDEST PUSH2 0xD2A JUMP JUMPDEST SWAP1 POP SWAP2 SWAP1 POP JUMP JUMPDEST PUSH1 0x0 PUSH2 0xDED DUP3 PUSH2 0xD88 JUMP JUMPDEST SWAP2 POP PUSH32 0xFFFFFFFFFFFFFFFFFFFFFFFFFFFFFFFFFFFFFFFFFFFFFFFFFFFFFFFFFFFFFFFF DUP3 EQ ISZERO PUSH2 0xE20 JUMPI PUSH2 0xE1F PUSH2 0xE8A JUMP JUMPDEST JUMPDEST PUSH1 0x1 DUP3 ADD SWAP1 POP SWAP2 SWAP1 POP JUMP JUMPDEST PUSH1 0x0 PUSH2 0xE36 DUP3 PUSH2 0xE3D JUMP JUMPDEST SWAP1 POP SWAP2 SWAP1 POP JUMP JUMPDEST PUSH1 0x0 PUSH2 0xE48 DUP3 PUSH2 0xF2F JUMP JUMPDEST SWAP1 POP SWAP2 SWAP1 POP JUMP JUMPDEST PUSH1 0x0 DUP2 SWAP1 POP SWAP2 SWAP1 POP JUMP JUMPDEST PUSH1 0x0 PUSH2 0xE64 DUP3 PUSH2 0xD88 JUMP JUMPDEST SWAP2 POP PUSH2 0xE6F DUP4 PUSH2 0xD88 JUMP JUMPDEST SWAP3 POP DUP3 PUSH2 0xE7F JUMPI PUSH2 0xE7E PUSH2 0xEB9 JUMP JUMPDEST JUMPDEST DUP3 DUP3 MOD SWAP1 POP SWAP3 SWAP2 POP POP JUMP JUMPDEST PUSH32 0x4E487B7100000000000000000000000000000000000000000000000000000000 PUSH1 0x0 MSTORE PUSH1 0x11 PUSH1 0x4 MSTORE PUSH1 0x24 PUSH1 0x0 REVERT JUMPDEST PUSH32 0x4E487B7100000000000000000000000000000000000000000000000000000000 PUSH1 0x0 MSTORE PUSH1 0x12 PUSH1 0x4 MSTORE PUSH1 0x24 PUSH1 0x0 REVERT JUMPDEST PUSH32 0x4E487B7100000000000000000000000000000000000000000000000000000000 PUSH1 0x0 MSTORE PUSH1 0x32 PUSH1 0x4 MSTORE PUSH1 0x24 PUSH1 0x0 REVERT JUMPDEST PUSH1 0x0 PUSH2 0xF23 DUP3 SLOAD PUSH2 0xDC8 JUMP JUMPDEST SWAP1 POP SWAP2 SWAP1 POP JUMP JUMPDEST PUSH1 0x0 DUP1 REVERT JUMPDEST PUSH1 0x0 DUP2 PUSH1 0x60 SHL SWAP1 POP SWAP2 SWAP1 POP JUMP JUMPDEST PUSH1 0x0 DUP2 PUSH1 0x0 SHR SWAP1 POP SWAP2 SWAP1 POP JUMP JUMPDEST PUSH32 0x4D617820506C6179657273206D757374206265206174206C6561737420320000 PUSH1 0x0 DUP3 ADD MSTORE POP JUMP JUMPDEST PUSH32 0x536F7272792C2063616E2774206A6F696E20746865206E6577206C6F74746572 PUSH1 0x0 DUP3 ADD MSTORE PUSH32 0x793A20636F6E7472616374207061757365640000000000000000000000000000 PUSH1 0x20 DUP3 ADD MSTORE POP JUMP JUMPDEST PUSH32 0x596F75277265206E6F7420746865204F776E6572000000000000000000000000 PUSH1 0x0 DUP3 ADD MSTORE POP JUMP JUMPDEST PUSH32 0x796F752063616E2774206368616E6765207469636B6574207072696365206475 PUSH1 0x0 DUP3 ADD MSTORE PUSH32 0x72696E672061206C6F7474657279000000000000000000000000000000000000 PUSH1 0x20 DUP3 ADD MSTORE POP JUMP JUMPDEST PUSH32 0x536F7272792C206E6F7420656E6F75676820657468657220746F206275792061 PUSH1 0x0 DUP3 ADD MSTORE PUSH32 0x207469636B657400000000000000000000000000000000000000000000000000 PUSH1 0x20 DUP3 ADD MSTORE POP JUMP JUMPDEST PUSH2 0x1091 DUP2 PUSH2 0xD5C JUMP JUMPDEST DUP2 EQ PUSH2 0x109C JUMPI PUSH1 0x0 DUP1 REVERT JUMPDEST POP JUMP JUMPDEST PUSH2 0x10A8 DUP2 PUSH2 0xD88 JUMP JUMPDEST DUP2 EQ PUSH2 0x10B3 JUMPI PUSH1 0x0 DUP1 REVERT JUMPDEST POP JUMP INVALID LOG2 PUSH5 0x6970667358 0x22 SLT KECCAK256 DUP6 0xF 0x4E CHAINID AND 0x5E 0xC9 CALLDATASIZE MSTORE8 PUSH17 0x4676BB07D8F3CFA60B330C1BC784B5D534 0xD2 0xBA CALLCODE DUP6 0x24 PUSH5 0x736F6C6343 STOP ADDMOD SMOD STOP CALLER "
		},
		"gasEstimates": {
			"creation": {
				"codeDepositCost": "866400",
				"executionCost": "93648",
				"totalCost": "960048"
			},
			"external": {
				"enter()": "infinite",
				"getNumPlayers()": "2445",
				"maxPlayers()": "2496",
				"owner()": "2566",
				"paused()": "2493",
				"setMaxPlayers(uint256)": "infinite",
				"setPause(bool)": "26912",
				"setTicketPrice(uint256)": "infinite",
				"ticketPrice()": "2430"
			},
			"internal": {
				"pickWinner()": "infinite"
			}
		},
		"methodIdentifiers": {
			"enter()": "e97dcb62",
			"getNumPlayers()": "55c9e926",
			"maxPlayers()": "4c2412a2",
			"owner()": "8da5cb5b",
			"paused()": "5c975abb",
			"setMaxPlayers(uint256)": "288dee3b",
			"setPause(bool)": "bedb86fb",
			"setTicketPrice(uint256)": "15981650",
			"ticketPrice()": "1209b1f6"
		}
	},
	"abi": [
		{
			"inputs": [],
			"stateMutability": "nonpayable",
			"type": "constructor"
		},
		{
			"anonymous": false,
			"inputs": [
				{
					"indexed": false,
					"internalType": "uint256",
					"name": "previous",
					"type": "uint256"
				},
				{
					"indexed": false,
					"internalType": "uint256",
					"name": "current",
					"type": "uint256"
				}
			],
			"name": "TicketPriceChanged",
			"type": "event"
		},
		{
			"anonymous": false,
			"inputs": [
				{
					"indexed": false,
					"internalType": "address",
					"name": "winnerAddress",
					"type": "address"
				},
				{
					"indexed": false,
					"internalType": "uint256",
					"name": "amount",
					"type": "uint256"
				}
			],
			"name": "Winner",
			"type": "event"
		},
		{
			"inputs": [],
			"name": "enter",
			"outputs": [],
			"stateMutability": "payable",
			"type": "function"
		},
		{
			"inputs": [],
			"name": "getNumPlayers",
			"outputs": [
				{
					"internalType": "uint256",
					"name": "",
					"type": "uint256"
				}
			],
			"stateMutability": "view",
			"type": "function"
		},
		{
			"inputs": [],
			"name": "maxPlayers",
			"outputs": [
				{
					"internalType": "uint256",
					"name": "",
					"type": "uint256"
				}
			],
			"stateMutability": "view",
			"type": "function"
		},
		{
			"inputs": [],
			"name": "owner",
			"outputs": [
				{
					"internalType": "address",
					"name": "",
					"type": "address"
				}
			],
			"stateMutability": "view",
			"type": "function"
		},
		{
			"inputs": [],
			"name": "paused",
			"outputs": [
				{
					"internalType": "bool",
					"name": "",
					"type": "bool"
				}
			],
			"stateMutability": "view",
			"type": "function"
		},
		{
			"inputs": [
				{
					"internalType": "uint256",
					"name": "i_maxPlayers",
					"type": "uint256"
				}
			],
			"name": "setMaxPlayers",
			"outputs": [],
			"stateMutability": "nonpayable",
			"type": "function"
		},
		{
			"inputs": [
				{
					"internalType": "bool",
					"name": "p",
					"type": "bool"
				}
			],
			"name": "setPause",
			"outputs": [],
			"stateMutability": "nonpayable",
			"type": "function"
		},
		{
			"inputs": [
				{
					"internalType": "uint256",
					"name": "i_price",
					"type": "uint256"
				}
			],
			"name": "setTicketPrice",
			"outputs": [],
			"stateMutability": "nonpayable",
			"type": "function"
		},
		{
			"inputs": [],
			"name": "ticketPrice",
			"outputs": [
				{
					"internalType": "uint256",
					"name": "",
					"type": "uint256"
				}
			],
			"stateMutability": "view",
			"type": "function"
		}
	]
}