{
	"data": {
		"bytecode": {
			"linkReferences": {},
			"object": "608060405234801561001057600080fd5b506108e5806100206000396000f3fe6080604052600436106100705760003560e01c80636d26ec181161004e5780636d26ec18146100f2578063853828b6146100fc5780638dc5c93614610113578063e14d30d71461013c57610070565b80630562b9f71461007557806312065fe01461009e578063532f96cd146100c9575b600080fd5b34801561008157600080fd5b5061009c60048036038101906100979190610680565b610165565b005b3480156100aa57600080fd5b506100b36101d5565b6040516100c0919061073c565b60405180910390f35b3480156100d557600080fd5b506100f060048036038101906100eb9190610640565b6101dd565b005b6100fa610377565b005b34801561010857600080fd5b50610111610379565b005b34801561011f57600080fd5b5061013a60048036038101906101359190610680565b6103e6565b005b34801561014857600080fd5b50610163600480360381019061015e9190610613565b6104e7565b005b3073ffffffffffffffffffffffffffffffffffffffff1663532f96cd33836040518363ffffffff1660e01b81526004016101a0929190610713565b600060405180830381600087803b1580156101ba57600080fd5b505af11580156101ce573d6000803e3d6000fd5b5050505050565b600047905090565b803073ffffffffffffffffffffffffffffffffffffffff166312065fe06040518163ffffffff1660e01b815260040160206040518083038186803b15801561022457600080fd5b505afa158015610238573d6000803e3d6000fd5b505050506040513d601f19601f8201168201806040525081019061025c91906106ad565b11156102ae578173ffffffffffffffffffffffffffffffffffffffff166108fc829081150290604051600060405180830381858888f193505050501580156102a8573d6000803e3d6000fd5b50610373565b8173ffffffffffffffffffffffffffffffffffffffff166108fc3073ffffffffffffffffffffffffffffffffffffffff166312065fe06040518163ffffffff1660e01b815260040160206040518083038186803b15801561030e57600080fd5b505afa158015610322573d6000803e3d6000fd5b505050506040513d601f19601f8201168201806040525081019061034691906106ad565b9081150290604051600060405180830381858888f19350505050158015610371573d6000803e3d6000fd5b505b5050565b565b3073ffffffffffffffffffffffffffffffffffffffff1663e14d30d7336040518263ffffffff1660e01b81526004016103b291906106f8565b600060405180830381600087803b1580156103cc57600080fd5b505af11580156103e0573d6000803e3d6000fd5b50505050565b60003390506000821180156103fc575060648211155b156104e35760008260643073ffffffffffffffffffffffffffffffffffffffff166312065fe06040518163ffffffff1660e01b815260040160206040518083038186803b15801561044c57600080fd5b505afa158015610460573d6000803e3d6000fd5b505050506040513d601f19601f8201168201806040525081019061048491906106ad565b61048e9190610757565b6104989190610788565b90508173ffffffffffffffffffffffffffffffffffffffff166108fc829081150290604051600060405180830381858888f193505050501580156104e0573d6000803e3d6000fd5b50505b5050565b3073ffffffffffffffffffffffffffffffffffffffff1663532f96cd823073ffffffffffffffffffffffffffffffffffffffff166312065fe06040518163ffffffff1660e01b815260040160206040518083038186803b15801561054a57600080fd5b505afa15801561055e573d6000803e3d6000fd5b505050506040513d601f19601f8201168201806040525081019061058291906106ad565b6040518363ffffffff1660e01b815260040161059f929190610713565b600060405180830381600087803b1580156105b957600080fd5b505af11580156105cd573d6000803e3d6000fd5b5050505050565b6000813590506105e381610881565b92915050565b6000813590506105f881610898565b92915050565b60008151905061060d81610898565b92915050565b6000602082840312156106295761062861087c565b5b6000610637848285016105d4565b91505092915050565b600080604083850312156106575761065661087c565b5b6000610665858286016105d4565b9250506020610676858286016105e9565b9150509250929050565b6000602082840312156106965761069561087c565b5b60006106a4848285016105e9565b91505092915050565b6000602082840312156106c3576106c261087c565b5b60006106d1848285016105fe565b91505092915050565b6106e3816107e2565b82525050565b6106f281610814565b82525050565b600060208201905061070d60008301846106da565b92915050565b600060408201905061072860008301856106da565b61073560208301846106e9565b9392505050565b600060208201905061075160008301846106e9565b92915050565b600061076282610814565b915061076d83610814565b92508261077d5761077c61084d565b5b828204905092915050565b600061079382610814565b915061079e83610814565b9250817fffffffffffffffffffffffffffffffffffffffffffffffffffffffffffffffff04831182151516156107d7576107d661081e565b5b828202905092915050565b60006107ed826107f4565b9050919050565b600073ffffffffffffffffffffffffffffffffffffffff82169050919050565b6000819050919050565b7f4e487b7100000000000000000000000000000000000000000000000000000000600052601160045260246000fd5b7f4e487b7100000000000000000000000000000000000000000000000000000000600052601260045260246000fd5b600080fd5b61088a816107e2565b811461089557600080fd5b50565b6108a181610814565b81146108ac57600080fd5b5056fea2646970667358221220245975d5439ec6a9731796a1ab4f1fadc4c5b946ced44a0ddcbfb962c5cdcc8a64736f6c63430008070033",
			"opcodes": "PUSH1 0x80 PUSH1 0x40 MSTORE CALLVALUE DUP1 ISZERO PUSH2 0x10 JUMPI PUSH1 0x0 DUP1 REVERT JUMPDEST POP PUSH2 0x8E5 DUP1 PUSH2 0x20 PUSH1 0x0 CODECOPY PUSH1 0x0 RETURN INVALID PUSH1 0x80 PUSH1 0x40 MSTORE PUSH1 0x4 CALLDATASIZE LT PUSH2 0x70 JUMPI PUSH1 0x0 CALLDATALOAD PUSH1 0xE0 SHR DUP1 PUSH4 0x6D26EC18 GT PUSH2 0x4E JUMPI DUP1 PUSH4 0x6D26EC18 EQ PUSH2 0xF2 JUMPI DUP1 PUSH4 0x853828B6 EQ PUSH2 0xFC JUMPI DUP1 PUSH4 0x8DC5C936 EQ PUSH2 0x113 JUMPI DUP1 PUSH4 0xE14D30D7 EQ PUSH2 0x13C JUMPI PUSH2 0x70 JUMP JUMPDEST DUP1 PUSH4 0x562B9F7 EQ PUSH2 0x75 JUMPI DUP1 PUSH4 0x12065FE0 EQ PUSH2 0x9E JUMPI DUP1 PUSH4 0x532F96CD EQ PUSH2 0xC9 JUMPI JUMPDEST PUSH1 0x0 DUP1 REVERT JUMPDEST CALLVALUE DUP1 ISZERO PUSH2 0x81 JUMPI PUSH1 0x0 DUP1 REVERT JUMPDEST POP PUSH2 0x9C PUSH1 0x4 DUP1 CALLDATASIZE SUB DUP2 ADD SWAP1 PUSH2 0x97 SWAP2 SWAP1 PUSH2 0x680 JUMP JUMPDEST PUSH2 0x165 JUMP JUMPDEST STOP JUMPDEST CALLVALUE DUP1 ISZERO PUSH2 0xAA JUMPI PUSH1 0x0 DUP1 REVERT JUMPDEST POP PUSH2 0xB3 PUSH2 0x1D5 JUMP JUMPDEST PUSH1 0x40 MLOAD PUSH2 0xC0 SWAP2 SWAP1 PUSH2 0x73C JUMP JUMPDEST PUSH1 0x40 MLOAD DUP1 SWAP2 SUB SWAP1 RETURN JUMPDEST CALLVALUE DUP1 ISZERO PUSH2 0xD5 JUMPI PUSH1 0x0 DUP1 REVERT JUMPDEST POP PUSH2 0xF0 PUSH1 0x4 DUP1 CALLDATASIZE SUB DUP2 ADD SWAP1 PUSH2 0xEB SWAP2 SWAP1 PUSH2 0x640 JUMP JUMPDEST PUSH2 0x1DD JUMP JUMPDEST STOP JUMPDEST PUSH2 0xFA PUSH2 0x377 JUMP JUMPDEST STOP JUMPDEST CALLVALUE DUP1 ISZERO PUSH2 0x108 JUMPI PUSH1 0x0 DUP1 REVERT JUMPDEST POP PUSH2 0x111 PUSH2 0x379 JUMP JUMPDEST STOP JUMPDEST CALLVALUE DUP1 ISZERO PUSH2 0x11F JUMPI PUSH1 0x0 DUP1 REVERT JUMPDEST POP PUSH2 0x13A PUSH1 0x4 DUP1 CALLDATASIZE SUB DUP2 ADD SWAP1 PUSH2 0x135 SWAP2 SWAP1 PUSH2 0x680 JUMP JUMPDEST PUSH2 0x3E6 JUMP JUMPDEST STOP JUMPDEST CALLVALUE DUP1 ISZERO PUSH2 0x148 JUMPI PUSH1 0x0 DUP1 REVERT JUMPDEST POP PUSH2 0x163 PUSH1 0x4 DUP1 CALLDATASIZE SUB DUP2 ADD SWAP1 PUSH2 0x15E SWAP2 SWAP1 PUSH2 0x613 JUMP JUMPDEST PUSH2 0x4E7 JUMP JUMPDEST STOP JUMPDEST ADDRESS PUSH20 0xFFFFFFFFFFFFFFFFFFFFFFFFFFFFFFFFFFFFFFFF AND PUSH4 0x532F96CD CALLER DUP4 PUSH1 0x40 MLOAD DUP4 PUSH4 0xFFFFFFFF AND PUSH1 0xE0 SHL DUP2 MSTORE PUSH1 0x4 ADD PUSH2 0x1A0 SWAP3 SWAP2 SWAP1 PUSH2 0x713 JUMP JUMPDEST PUSH1 0x0 PUSH1 0x40 MLOAD DUP1 DUP4 SUB DUP2 PUSH1 0x0 DUP8 DUP1 EXTCODESIZE ISZERO DUP1 ISZERO PUSH2 0x1BA JUMPI PUSH1 0x0 DUP1 REVERT JUMPDEST POP GAS CALL ISZERO DUP1 ISZERO PUSH2 0x1CE JUMPI RETURNDATASIZE PUSH1 0x0 DUP1 RETURNDATACOPY RETURNDATASIZE PUSH1 0x0 REVERT JUMPDEST POP POP POP POP POP JUMP JUMPDEST PUSH1 0x0 SELFBALANCE SWAP1 POP SWAP1 JUMP JUMPDEST DUP1 ADDRESS PUSH20 0xFFFFFFFFFFFFFFFFFFFFFFFFFFFFFFFFFFFFFFFF AND PUSH4 0x12065FE0 PUSH1 0x40 MLOAD DUP2 PUSH4 0xFFFFFFFF AND PUSH1 0xE0 SHL DUP2 MSTORE PUSH1 0x4 ADD PUSH1 0x20 PUSH1 0x40 MLOAD DUP1 DUP4 SUB DUP2 DUP7 DUP1 EXTCODESIZE ISZERO DUP1 ISZERO PUSH2 0x224 JUMPI PUSH1 0x0 DUP1 REVERT JUMPDEST POP GAS STATICCALL ISZERO DUP1 ISZERO PUSH2 0x238 JUMPI RETURNDATASIZE PUSH1 0x0 DUP1 RETURNDATACOPY RETURNDATASIZE PUSH1 0x0 REVERT JUMPDEST POP POP POP POP PUSH1 0x40 MLOAD RETURNDATASIZE PUSH1 0x1F NOT PUSH1 0x1F DUP3 ADD AND DUP3 ADD DUP1 PUSH1 0x40 MSTORE POP DUP2 ADD SWAP1 PUSH2 0x25C SWAP2 SWAP1 PUSH2 0x6AD JUMP JUMPDEST GT ISZERO PUSH2 0x2AE JUMPI DUP2 PUSH20 0xFFFFFFFFFFFFFFFFFFFFFFFFFFFFFFFFFFFFFFFF AND PUSH2 0x8FC DUP3 SWAP1 DUP2 ISZERO MUL SWAP1 PUSH1 0x40 MLOAD PUSH1 0x0 PUSH1 0x40 MLOAD DUP1 DUP4 SUB DUP2 DUP6 DUP9 DUP9 CALL SWAP4 POP POP POP POP ISZERO DUP1 ISZERO PUSH2 0x2A8 JUMPI RETURNDATASIZE PUSH1 0x0 DUP1 RETURNDATACOPY RETURNDATASIZE PUSH1 0x0 REVERT JUMPDEST POP PUSH2 0x373 JUMP JUMPDEST DUP2 PUSH20 0xFFFFFFFFFFFFFFFFFFFFFFFFFFFFFFFFFFFFFFFF AND PUSH2 0x8FC ADDRESS PUSH20 0xFFFFFFFFFFFFFFFFFFFFFFFFFFFFFFFFFFFFFFFF AND PUSH4 0x12065FE0 PUSH1 0x40 MLOAD DUP2 PUSH4 0xFFFFFFFF AND PUSH1 0xE0 SHL DUP2 MSTORE PUSH1 0x4 ADD PUSH1 0x20 PUSH1 0x40 MLOAD DUP1 DUP4 SUB DUP2 DUP7 DUP1 EXTCODESIZE ISZERO DUP1 ISZERO PUSH2 0x30E JUMPI PUSH1 0x0 DUP1 REVERT JUMPDEST POP GAS STATICCALL ISZERO DUP1 ISZERO PUSH2 0x322 JUMPI RETURNDATASIZE PUSH1 0x0 DUP1 RETURNDATACOPY RETURNDATASIZE PUSH1 0x0 REVERT JUMPDEST POP POP POP POP PUSH1 0x40 MLOAD RETURNDATASIZE PUSH1 0x1F NOT PUSH1 0x1F DUP3 ADD AND DUP3 ADD DUP1 PUSH1 0x40 MSTORE POP DUP2 ADD SWAP1 PUSH2 0x346 SWAP2 SWAP1 PUSH2 0x6AD JUMP JUMPDEST SWAP1 DUP2 ISZERO MUL SWAP1 PUSH1 0x40 MLOAD PUSH1 0x0 PUSH1 0x40 MLOAD DUP1 DUP4 SUB DUP2 DUP6 DUP9 DUP9 CALL SWAP4 POP POP POP POP ISZERO DUP1 ISZERO PUSH2 0x371 JUMPI RETURNDATASIZE PUSH1 0x0 DUP1 RETURNDATACOPY RETURNDATASIZE PUSH1 0x0 REVERT JUMPDEST POP JUMPDEST POP POP JUMP JUMPDEST JUMP JUMPDEST ADDRESS PUSH20 0xFFFFFFFFFFFFFFFFFFFFFFFFFFFFFFFFFFFFFFFF AND PUSH4 0xE14D30D7 CALLER PUSH1 0x40 MLOAD DUP3 PUSH4 0xFFFFFFFF AND PUSH1 0xE0 SHL DUP2 MSTORE PUSH1 0x4 ADD PUSH2 0x3B2 SWAP2 SWAP1 PUSH2 0x6F8 JUMP JUMPDEST PUSH1 0x0 PUSH1 0x40 MLOAD DUP1 DUP4 SUB DUP2 PUSH1 0x0 DUP8 DUP1 EXTCODESIZE ISZERO DUP1 ISZERO PUSH2 0x3CC JUMPI PUSH1 0x0 DUP1 REVERT JUMPDEST POP GAS CALL ISZERO DUP1 ISZERO PUSH2 0x3E0 JUMPI RETURNDATASIZE PUSH1 0x0 DUP1 RETURNDATACOPY RETURNDATASIZE PUSH1 0x0 REVERT JUMPDEST POP POP POP POP JUMP JUMPDEST PUSH1 0x0 CALLER SWAP1 POP PUSH1 0x0 DUP3 GT DUP1 ISZERO PUSH2 0x3FC JUMPI POP PUSH1 0x64 DUP3 GT ISZERO JUMPDEST ISZERO PUSH2 0x4E3 JUMPI PUSH1 0x0 DUP3 PUSH1 0x64 ADDRESS PUSH20 0xFFFFFFFFFFFFFFFFFFFFFFFFFFFFFFFFFFFFFFFF AND PUSH4 0x12065FE0 PUSH1 0x40 MLOAD DUP2 PUSH4 0xFFFFFFFF AND PUSH1 0xE0 SHL DUP2 MSTORE PUSH1 0x4 ADD PUSH1 0x20 PUSH1 0x40 MLOAD DUP1 DUP4 SUB DUP2 DUP7 DUP1 EXTCODESIZE ISZERO DUP1 ISZERO PUSH2 0x44C JUMPI PUSH1 0x0 DUP1 REVERT JUMPDEST POP GAS STATICCALL ISZERO DUP1 ISZERO PUSH2 0x460 JUMPI RETURNDATASIZE PUSH1 0x0 DUP1 RETURNDATACOPY RETURNDATASIZE PUSH1 0x0 REVERT JUMPDEST POP POP POP POP PUSH1 0x40 MLOAD RETURNDATASIZE PUSH1 0x1F NOT PUSH1 0x1F DUP3 ADD AND DUP3 ADD DUP1 PUSH1 0x40 MSTORE POP DUP2 ADD SWAP1 PUSH2 0x484 SWAP2 SWAP1 PUSH2 0x6AD JUMP JUMPDEST PUSH2 0x48E SWAP2 SWAP1 PUSH2 0x757 JUMP JUMPDEST PUSH2 0x498 SWAP2 SWAP1 PUSH2 0x788 JUMP JUMPDEST SWAP1 POP DUP2 PUSH20 0xFFFFFFFFFFFFFFFFFFFFFFFFFFFFFFFFFFFFFFFF AND PUSH2 0x8FC DUP3 SWAP1 DUP2 ISZERO MUL SWAP1 PUSH1 0x40 MLOAD PUSH1 0x0 PUSH1 0x40 MLOAD DUP1 DUP4 SUB DUP2 DUP6 DUP9 DUP9 CALL SWAP4 POP POP POP POP ISZERO DUP1 ISZERO PUSH2 0x4E0 JUMPI RETURNDATASIZE PUSH1 0x0 DUP1 RETURNDATACOPY RETURNDATASIZE PUSH1 0x0 REVERT JUMPDEST POP POP JUMPDEST POP POP JUMP JUMPDEST ADDRESS PUSH20 0xFFFFFFFFFFFFFFFFFFFFFFFFFFFFFFFFFFFFFFFF AND PUSH4 0x532F96CD DUP3 ADDRESS PUSH20 0xFFFFFFFFFFFFFFFFFFFFFFFFFFFFFFFFFFFFFFFF AND PUSH4 0x12065FE0 PUSH1 0x40 MLOAD DUP2 PUSH4 0xFFFFFFFF AND PUSH1 0xE0 SHL DUP2 MSTORE PUSH1 0x4 ADD PUSH1 0x20 PUSH1 0x40 MLOAD DUP1 DUP4 SUB DUP2 DUP7 DUP1 EXTCODESIZE ISZERO DUP1 ISZERO PUSH2 0x54A JUMPI PUSH1 0x0 DUP1 REVERT JUMPDEST POP GAS STATICCALL ISZERO DUP1 ISZERO PUSH2 0x55E JUMPI RETURNDATASIZE PUSH1 0x0 DUP1 RETURNDATACOPY RETURNDATASIZE PUSH1 0x0 REVERT JUMPDEST POP POP POP POP PUSH1 0x40 MLOAD RETURNDATASIZE PUSH1 0x1F NOT PUSH1 0x1F DUP3 ADD AND DUP3 ADD DUP1 PUSH1 0x40 MSTORE POP DUP2 ADD SWAP1 PUSH2 0x582 SWAP2 SWAP1 PUSH2 0x6AD JUMP JUMPDEST PUSH1 0x40 MLOAD DUP4 PUSH4 0xFFFFFFFF AND PUSH1 0xE0 SHL DUP2 MSTORE PUSH1 0x4 ADD PUSH2 0x59F SWAP3 SWAP2 SWAP1 PUSH2 0x713 JUMP JUMPDEST PUSH1 0x0 PUSH1 0x40 MLOAD DUP1 DUP4 SUB DUP2 PUSH1 0x0 DUP8 DUP1 EXTCODESIZE ISZERO DUP1 ISZERO PUSH2 0x5B9 JUMPI PUSH1 0x0 DUP1 REVERT JUMPDEST POP GAS CALL ISZERO DUP1 ISZERO PUSH2 0x5CD JUMPI RETURNDATASIZE PUSH1 0x0 DUP1 RETURNDATACOPY RETURNDATASIZE PUSH1 0x0 REVERT JUMPDEST POP POP POP POP POP JUMP JUMPDEST PUSH1 0x0 DUP2 CALLDATALOAD SWAP1 POP PUSH2 0x5E3 DUP2 PUSH2 0x881 JUMP JUMPDEST SWAP3 SWAP2 POP POP JUMP JUMPDEST PUSH1 0x0 DUP2 CALLDATALOAD SWAP1 POP PUSH2 0x5F8 DUP2 PUSH2 0x898 JUMP JUMPDEST SWAP3 SWAP2 POP POP JUMP JUMPDEST PUSH1 0x0 DUP2 MLOAD SWAP1 POP PUSH2 0x60D DUP2 PUSH2 0x898 JUMP JUMPDEST SWAP3 SWAP2 POP POP JUMP JUMPDEST PUSH1 0x0 PUSH1 0x20 DUP3 DUP5 SUB SLT ISZERO PUSH2 0x629 JUMPI PUSH2 0x628 PUSH2 0x87C JUMP JUMPDEST JUMPDEST PUSH1 0x0 PUSH2 0x637 DUP5 DUP3 DUP6 ADD PUSH2 0x5D4 JUMP JUMPDEST SWAP2 POP POP SWAP3 SWAP2 POP POP JUMP JUMPDEST PUSH1 0x0 DUP1 PUSH1 0x40 DUP4 DUP6 SUB SLT ISZERO PUSH2 0x657 JUMPI PUSH2 0x656 PUSH2 0x87C JUMP JUMPDEST JUMPDEST PUSH1 0x0 PUSH2 0x665 DUP6 DUP3 DUP7 ADD PUSH2 0x5D4 JUMP JUMPDEST SWAP3 POP POP PUSH1 0x20 PUSH2 0x676 DUP6 DUP3 DUP7 ADD PUSH2 0x5E9 JUMP JUMPDEST SWAP2 POP POP SWAP3 POP SWAP3 SWAP1 POP JUMP JUMPDEST PUSH1 0x0 PUSH1 0x20 DUP3 DUP5 SUB SLT ISZERO PUSH2 0x696 JUMPI PUSH2 0x695 PUSH2 0x87C JUMP JUMPDEST JUMPDEST PUSH1 0x0 PUSH2 0x6A4 DUP5 DUP3 DUP6 ADD PUSH2 0x5E9 JUMP JUMPDEST SWAP2 POP POP SWAP3 SWAP2 POP POP JUMP JUMPDEST PUSH1 0x0 PUSH1 0x20 DUP3 DUP5 SUB SLT ISZERO PUSH2 0x6C3 JUMPI PUSH2 0x6C2 PUSH2 0x87C JUMP JUMPDEST JUMPDEST PUSH1 0x0 PUSH2 0x6D1 DUP5 DUP3 DUP6 ADD PUSH2 0x5FE JUMP JUMPDEST SWAP2 POP POP SWAP3 SWAP2 POP POP JUMP JUMPDEST PUSH2 0x6E3 DUP2 PUSH2 0x7E2 JUMP JUMPDEST DUP3 MSTORE POP POP JUMP JUMPDEST PUSH2 0x6F2 DUP2 PUSH2 0x814 JUMP JUMPDEST DUP3 MSTORE POP POP JUMP JUMPDEST PUSH1 0x0 PUSH1 0x20 DUP3 ADD SWAP1 POP PUSH2 0x70D PUSH1 0x0 DUP4 ADD DUP5 PUSH2 0x6DA JUMP JUMPDEST SWAP3 SWAP2 POP POP JUMP JUMPDEST PUSH1 0x0 PUSH1 0x40 DUP3 ADD SWAP1 POP PUSH2 0x728 PUSH1 0x0 DUP4 ADD DUP6 PUSH2 0x6DA JUMP JUMPDEST PUSH2 0x735 PUSH1 0x20 DUP4 ADD DUP5 PUSH2 0x6E9 JUMP JUMPDEST SWAP4 SWAP3 POP POP POP JUMP JUMPDEST PUSH1 0x0 PUSH1 0x20 DUP3 ADD SWAP1 POP PUSH2 0x751 PUSH1 0x0 DUP4 ADD DUP5 PUSH2 0x6E9 JUMP JUMPDEST SWAP3 SWAP2 POP POP JUMP JUMPDEST PUSH1 0x0 PUSH2 0x762 DUP3 PUSH2 0x814 JUMP JUMPDEST SWAP2 POP PUSH2 0x76D DUP4 PUSH2 0x814 JUMP JUMPDEST SWAP3 POP DUP3 PUSH2 0x77D JUMPI PUSH2 0x77C PUSH2 0x84D JUMP JUMPDEST JUMPDEST DUP3 DUP3 DIV SWAP1 POP SWAP3 SWAP2 POP POP JUMP JUMPDEST PUSH1 0x0 PUSH2 0x793 DUP3 PUSH2 0x814 JUMP JUMPDEST SWAP2 POP PUSH2 0x79E DUP4 PUSH2 0x814 JUMP JUMPDEST SWAP3 POP DUP2 PUSH32 0xFFFFFFFFFFFFFFFFFFFFFFFFFFFFFFFFFFFFFFFFFFFFFFFFFFFFFFFFFFFFFFFF DIV DUP4 GT DUP3 ISZERO ISZERO AND ISZERO PUSH2 0x7D7 JUMPI PUSH2 0x7D6 PUSH2 0x81E JUMP JUMPDEST JUMPDEST DUP3 DUP3 MUL SWAP1 POP SWAP3 SWAP2 POP POP JUMP JUMPDEST PUSH1 0x0 PUSH2 0x7ED DUP3 PUSH2 0x7F4 JUMP JUMPDEST SWAP1 POP SWAP2 SWAP1 POP JUMP JUMPDEST PUSH1 0x0 PUSH20 0xFFFFFFFFFFFFFFFFFFFFFFFFFFFFFFFFFFFFFFFF DUP3 AND SWAP1 POP SWAP2 SWAP1 POP JUMP JUMPDEST PUSH1 0x0 DUP2 SWAP1 POP SWAP2 SWAP1 POP JUMP JUMPDEST PUSH32 0x4E487B7100000000000000000000000000000000000000000000000000000000 PUSH1 0x0 MSTORE PUSH1 0x11 PUSH1 0x4 MSTORE PUSH1 0x24 PUSH1 0x0 REVERT JUMPDEST PUSH32 0x4E487B7100000000000000000000000000000000000000000000000000000000 PUSH1 0x0 MSTORE PUSH1 0x12 PUSH1 0x4 MSTORE PUSH1 0x24 PUSH1 0x0 REVERT JUMPDEST PUSH1 0x0 DUP1 REVERT JUMPDEST PUSH2 0x88A DUP2 PUSH2 0x7E2 JUMP JUMPDEST DUP2 EQ PUSH2 0x895 JUMPI PUSH1 0x0 DUP1 REVERT JUMPDEST POP JUMP JUMPDEST PUSH2 0x8A1 DUP2 PUSH2 0x814 JUMP JUMPDEST DUP2 EQ PUSH2 0x8AC JUMPI PUSH1 0x0 DUP1 REVERT JUMPDEST POP JUMP INVALID LOG2 PUSH5 0x6970667358 0x22 SLT KECCAK256 0x24 MSIZE PUSH22 0xD5439EC6A9731796A1AB4F1FADC4C5B946CED44A0DDC 0xBF 0xB9 PUSH3 0xC5CDCC DUP11 PUSH5 0x736F6C6343 STOP ADDMOD SMOD STOP CALLER "
		},
		"gasEstimates": {
			"creation": {
				"codeDepositCost": "455400",
				"executionCost": "493",
				"totalCost": "455893"
			},
			"external": {
				"donateAllTo(address)": "infinite",
				"donateTo(address,uint256)": "infinite",
				"getBalance()": "362",
				"receiveMoney()": "120",
				"withdrawAll()": "infinite",
				"withdrawAmount(uint256)": "infinite",
				"withdrawPercent(uint256)": "infinite"
			}
		},
		"methodIdentifiers": {
			"donateAllTo(address)": "e14d30d7",
			"donateTo(address,uint256)": "532f96cd",
			"getBalance()": "12065fe0",
			"receiveMoney()": "6d26ec18",
			"withdrawAll()": "853828b6",
			"withdrawAmount(uint256)": "0562b9f7",
			"withdrawPercent(uint256)": "8dc5c936"
		}
	},
	"abi": [
		{
			"inputs": [
				{
					"internalType": "address payable",
					"name": "to",
					"type": "address"
				}
			],
			"name": "donateAllTo",
			"outputs": [],
			"stateMutability": "nonpayable",
			"type": "function"
		},
		{
			"inputs": [
				{
					"internalType": "address payable",
					"name": "to",
					"type": "address"
				},
				{
					"internalType": "uint256",
					"name": "num_wei",
					"type": "uint256"
				}
			],
			"name": "donateTo",
			"outputs": [],
			"stateMutability": "nonpayable",
			"type": "function"
		},
		{
			"inputs": [],
			"name": "getBalance",
			"outputs": [
				{
					"internalType": "uint256",
					"name": "",
					"type": "uint256"
				}
			],
			"stateMutability": "view",
			"type": "function"
		},
		{
			"inputs": [],
			"name": "receiveMoney",
			"outputs": [],
			"stateMutability": "payable",
			"type": "function"
		},
		{
			"inputs": [],
			"name": "withdrawAll",
			"outputs": [],
			"stateMutability": "nonpayable",
			"type": "function"
		},
		{
			"inputs": [
				{
					"internalType": "uint256",
					"name": "num_wei",
					"type": "uint256"
				}
			],
			"name": "withdrawAmount",
			"outputs": [],
			"stateMutability": "nonpayable",
			"type": "function"
		},
		{
			"inputs": [
				{
					"internalType": "uint256",
					"name": "percent",
					"type": "uint256"
				}
			],
			"name": "withdrawPercent",
			"outputs": [],
			"stateMutability": "nonpayable",
			"type": "function"
		}
	]
}